{
  "contractName": "Fruitshop",
  "abi": [
    {
      "inputs": [],
      "payable": false,
      "stateMutability": "nonpayable",
      "type": "constructor"
    },
    {
      "constant": false,
      "inputs": [],
      "name": "buyApple",
      "outputs": [],
      "payable": true,
      "stateMutability": "payable",
      "type": "function"
    },
    {
      "constant": true,
      "inputs": [],
      "name": "showMyApple",
      "outputs": [
        {
          "internalType": "uint256",
          "name": "",
          "type": "uint256"
        }
      ],
      "payable": false,
      "stateMutability": "view",
      "type": "function"
    },
    {
      "constant": false,
      "inputs": [
        {
          "internalType": "uint256",
          "name": "_applePrice",
          "type": "uint256"
        }
      ],
      "name": "sellApple",
      "outputs": [],
      "payable": true,
      "stateMutability": "payable",
      "type": "function"
    }
  ],
  "bytecode": "0x608060405234801561001057600080fd5b50610250806100206000396000f3fe6080604052600436106100345760003560e01c8063284131c714610039578063db54b74c14610043578063e309c8e114610071575b600080fd5b61004161009c565b005b61006f6004803603602081101561005957600080fd5b81019080803590602001909291905050506100ec565b005b34801561007d57600080fd5b506100866101d5565b6040518082815260200191505060405180910390f35b6000803373ffffffffffffffffffffffffffffffffffffffff1673ffffffffffffffffffffffffffffffffffffffff16815260200190815260200160002060008154809291906001019190505550565b60006100f66101d5565b141561010157600080fd5b6000816000803373ffffffffffffffffffffffffffffffffffffffff1673ffffffffffffffffffffffffffffffffffffffff1681526020019081526020016000205402905060008060003373ffffffffffffffffffffffffffffffffffffffff1673ffffffffffffffffffffffffffffffffffffffff168152602001908152602001600020819055503373ffffffffffffffffffffffffffffffffffffffff166108fc829081150290604051600060405180830381858888f193505050501580156101d0573d6000803e3d6000fd5b505050565b60008060003373ffffffffffffffffffffffffffffffffffffffff1673ffffffffffffffffffffffffffffffffffffffff1681526020019081526020016000205490509056fea265627a7a723158202fa9f377a6b3f27bdb833ca00c5aa262744c235cfa0aafb511fc381726def23664736f6c63430005100032",
  "source": "// SPDX-License-Identifier: MIT\npragma solidity >=0.4.22 <0.9.0;\n\n/*\n  1. 보낸 사람의 계정에서 사과를 총 몇 개 가지고 있는지 확인\n  2. 사과를 구매했을 떄 해당 계정(주소)에 사과를 추가한다. \n  3. 사과를 판매할 시 내가 가지고 있는 사과* 사과 구매가격 만큼 토큰을 반환해주고. \n      보유하고 있는 사과의 개수를 조정한다. \n */\n\ncontract Fruitshop {\n\n  mapping(address => uint) myApple;\n\n  constructor() public {\n\n  }\n\n  function buyApple() payable external {\n    myApple[msg.sender]++;\n  }\n\n  function showMyApple() public view returns(uint){\n    return myApple[msg.sender]; \n  }\n\n  function sellApple(uint _applePrice) payable external {\n    require(showMyApple()!=0);\n    uint totalPrice = (myApple[msg.sender] * _applePrice);\n    myApple[msg.sender]  = 0;\n    msg.sender.transfer(totalPrice);\n\n  }\n}\n",
  "sourcePath": "C:\\Users\\KGA_18\\Desktop\\Solidity\\react2\\contracts\\Fruitshop.sol",
  "compiler": {
    "name": "solc",
    "version": "0.5.16+commit.9c3226ce.Emscripten.clang"
  },
  "schemaVersion": "3.4.3",
  "updatedAt": "2021-10-14T05:26:06.668Z",
  "networkType": "ethereum",
  "devdoc": {
    "methods": {}
  },
  "userdoc": {
    "methods": {}
  }
}